:1000000008308A0000280000FF00030E8301A100D1
:100010000A08A0008A010408A2007708A300780853
:10002000A4007908A5007A08A60003170D08031399
:10003000A70003170F080313A80003170C080313E6
:10004000A90003170E080313AA00831383128B1E43
:100050002B280B194C28220884002308F7002408B9
:10006000F8002508F9002608FA00270803178D0074
:100070000313280803178F000313290803178C00A4
:1000800003132A0803178E00031320088A00210E89
:100090008300FF0E7F0E09008A110A1257280A10EA
:1000A0008A100A11820728340C34013406340130D6
:1000B000AB070318AC0A2C08003C03186828FF3A69
:1000C000031D66282B08813C03186828AC01AB018E
:1000D000AC08031D74282D082B02031874288316FE
:1000E0000810831208147828831608108312081049
:1000F000AC08031D84282E082B02031884288316BD
:100100008810831288148828831688108312881018
:100110000B118A110A122B280C00D03A6539F430E1
:10012000A01AAD2ACE240001C539F030E334EF39EE
:100130002032E939701DA012640049223A100001F2
:10014000C539F430E3346F37E136E9326E3A6F1077
:1001500000014C3665376F170001C131E332F337C8
:10016000A0216F39F232633A6F00C131E332F337C5
:1001700020226537E53361326F00513084008313EC
:1001800000080319D0280630F800F701F70BC6283D
:10019000F80BC5287B30F700F70BCC28800BC32861
:1001A00008005818D5280812D628081683160812F1
:1001B0008312D818DD288812DE2888168316881244
:1001C00083125819E5280813E62808178316081320
:1001D0008312D819ED288813EE2888178316881300
:1001E00000008811831288150230F700F70BF628FB
:1001F000F9280000831688118312881108008316DD
:100200000811831208116330F700F70B052908293C
:10021000D50803191029831608118312081514290B
:1002200083160811831208110000831688118312A7
:100230008811560ED7000F30D7055708D800D120A7
:1002400056080F39D700D800D120080083160811AE
:100250008312081183168811831288110F30D10080
:10026000BD20CA014A08023C031C3E290330D800C5
:10027000D1200530D100BD20CA0A32290230D80071
:10028000D120CA014A08033C031C52294A084F20C6
:10029000CB00D5014B08D600FF200530D100BD2092
:1002A000CA0A42298A150A12262885108316851043
:1002B000831205108316051003108312650D7E3915
:1002C000E8000830E700E70803197D29680880394D
:1002D000803C03196D2905116E290515831605113A
:1002E000831285148316851003108312E80D851080
:1002F000831685108312E70363290830E700E708B7
:100300000319992966088039803C03198929051148
:100310008A29051583160511831285148316851005
:1003200003108312E60D8510831685108312E703F0
:100330007F290514831605108312851483168510F2
:1003400083120800E70185108316851083120510BB
:100350008316051003108312640D7E398038E60081
:100360000830E500E5080319CC2966088039803C8F
:100370000319BC290511BD29051583160511831222
:1003800085148316851003108312E60D85108316DD
:1003900085108312E503B2290830E500E50803194A
:1003A000E42985148316851003108312E70D831644
:1003B00085150030831285190130E70485108316F6
:1003C00085108312E503CE290514831605108312C8
:1003D00085148316851083126708F8000800E3016E
:1003E0006108E400A2217808E3006208FF3A63058F
:1003F000E4006108E5006408E60055210800E30117
:100400006108E400A2217808E30063086204E400C4
:100410006108E5006408E60055210800051483160C
:10042000051083120516831605128312051683160E
:1004300005121A2A1B2A00008312051283160512C0
:10044000212A222A00008312051683160512282A63
:10045000292A000001308312E5000F30E600552103
:10046000312A322A00002A30E5008D30E60055217D
:100470002B30E5003E30E60055212D30E5001E30E2
:10048000E60055212C30E500E60155211530E50048
:100490004030E60055211130E5003D30E6005521A1
:1004A0001430E1000330E200EF211430E400A22117
:1004B0007808CA001430E1000330E200FF218A15F9
:1004C0000A12292883160108C739083881008312C7
:1004D0008B16C0308B04E63081008A150A122C2856
:1004E000520B732A762A4030D300772AD301013089
:1004F0005102D30753088038D400D5015408D600E0
:10050000FF20080050080C3A03198D2A063A0319F7
:10051000952A023A03199B2AA02AD5010130D60058
:10052000FF200230D100BD20A52A0130D1000230C9
:10053000D2007022A52AD5011030D600FF20A52AAE
:100540000130D5005008D600FF2008000B08CA0073
:100550008B13831603178C170C14000000008312F2
:100560000313CA1B8B1703170C087F390319FA2AC8
:100570000313CA0003170D080313CB0003170F085A
:100580000313CC004A08D00082224B0803178D00C9
:1005900003134C0803178F0003130B08CD008B13B4
:1005A000831603178C170C1400000000831203132A
:1005B000CD1B8B1703170C0D0E0D7F390319FA2A6B
:1005C0000313CA0003170D080313CB0003170F080A
:1005D0000313CC004A08D00082224B0803178D0079
:1005E00003134C0803178F008D0A03198F0A031396
:1005F000A62A0317031308000B08CB008B138316DE
:1006000003178C170C140000000083120313CB1B7C
:100610008B170318332B03170C087F390313CB00F8
:1006200003170D080313CC0003170F080313CD00A5
:100630004B08D00082224C0803178D0003134D088D
:1006400003178F0003130B08CE008B1383160317B9
:100650008C170C140000000083120313CE1B8B17A1
:10066000CA0B332B522B03170C0D0E0D7F390313BE
:10067000CB0003170D080313CC0003170F08031357
:10068000CD004B08D00082224C0803178D000313C5
:100690004D0803178F008D0A03198F0A03100313E7
:1006A000CA0BFC2A8A150A124E285108F80150027A
:1006B00003185D2B5008F700692BF7010830D200B2
:1006C000D00DF70D510877020318F700F80DD20B83
:1006D000602B080020304B1E3030CC004A08F70059
:1006E000CA1F7A2BF709F70A7708CA002D30CC0009
:1006F000CB174B144A08D0006430D100552377083B
:10070000CA0030307807CD004A08D0000A30D10046
:10071000552330307707CF0030307807CE004C08B3
:10072000F70030304D020319992BCB14CB1B4B151E
:10073000AD2B4C08CD002030CC0030304E020319D8
:10074000A52B4B14CB1BCB14AD2B031D4B14031D3E
:10075000AD2B4D08CE002030CD004B19B42BCB185B
:10076000B72B4B18BA2BBD2B4C08D00082224D085A
:10077000D00082224E08D00082224F08D000822270
:100780008A150A1255280230DB00DC01DD0153080E
:100790000E3A0319CF2B023A0319D42BD92B12305E
:1007A000DC001030DD00D92B7730DC003030DD008C
:1007B000D92B5C088038E1000230E5006108E600D2
:1007C00055210430E1008030E200EF210A30E100E1
:1007D0008030E200FF210130E500E6015521E00113
:1007E000560860020318032C600854078400831322
:1007F000551883170008E1000930E5006108E6009C
:100800005521E00AF02B0130E5005308E6005521A0
:1008100053080C3C031D112C0D30E1008030E20028
:10082000FF21FF30E0000430E400A2217808DF005F
:10083000E003E0080319222C5F18222C5F085D05F5
:100840000319132C0D30E1008030E200EF21E008A5
:1008500003199A2C0630E400A22178081B39031DE5
:10086000982CDB015F085C0501390319392C013034
:10087000DB0053080C3C031D972C0A30E400A22136
:100880007808DF000C30E400A22178080739DE0088
:10089000DE0803195C2C5908840083135A18831747
:1008A00001305F02F700F70DF70DF70DF830F7058F
:1008B00077085E078000692C5908840083135A1852
:1008C00083175F0DF700F70DF70DF830F705770880
:1008D0008000DF08031D6E2C0130DF005F08103C34
:1008E0000318742C1030DF00E0015F086002031869
:1008F000902C60085707F8005808FA000318FA0A05
:100900007808E1007A08E2000930E400A2216108D9
:10091000840083136218831778088000E00A752C1E
:1009200060085707840083135818831780019A2C96
:100930000230DB005B08F80008002630CC004B08D2
:10094000CE004A08CD000D30E5000730E600552105
:100950004D08840083134E1883174C0880000C3018
:10096000D3004E08D5004D08D4000130D6004E0803
:10097000D8004D08D700DA015030D900C3237808D9
:10098000CF00CF08031DC82C5008103C0319CA2CF7
:100990000230CF004F08F800F808031DD32C0130B7
:1009A000F800D52CD52C0030F8008A150A126028E2
:1009B0004B08CE004A08CD00D1010D30E500E6011C
:1009C00055214D08840083134E18831793308000FF
:1009D00001304D07840083134E18831720308000A8
:1009E0000830E100E200EF210C30D3004E08D500C2
:1009F0004D08D4000230D6004E08D8004D08D7006C
:100A0000DA015230D900C3237808CF00CF08031D84
:100A1000242DD0015008033C031C182D50084D070D
:100A2000840083134E1883170008D106D00A0A2DBC
:100A300004304D07840083134E18831700085102B9
:100A40000319242D0230CF004F08F8007808CC009D
:100A500005304A07840083134B1883178001CC08A4
:100A6000031D362D0130F800382D382D0030F800E8
:100A70008A150A1269288C3003178D0000308F0008
:100A80000313A6220800CC1B552D0F30F7004B0E88
:100A9000F7050A3077020318502D3030F707522D32
:100AA0004C08F7077708D00082220F30CB050A30B8
:100AB0004B0203185D2D30305F2DCC134C08CB0753
:100AC0004B08D00082228A150A1296284A08840010
:100AD00083134B1883170008CE004C08840083133F
:100AE0004D18831700084E02031DC22D01304A071E
:100AF000840083134B1883170008CE0001304C0785
:100B0000840083134D18831700084E02031DC22D65
:100B100002304A07840083134B1883170008CE0065
:100B200002304C07840083134D18831700084E02CF
:100B3000031DC22D03304A07840083134B1883170B
:100B40000008CE0003304C07840083134D18831730
:100B500000084E02031DC22D04304A07840083138F
:100B60004B1883170008CE0004304C078400831311
:100B70004D18831700084E02031DC22D0130F800E6
:100B8000C42DC42D0030F8008A150A12A128CC010A
:100B90004A08CB00CE01CD01D001B430CF00D20144
:100BA0000B30D100D4013030D3004D084B02D500BA
:100BB0004C08D6004E08031C4E0FD60251085302B3
:100BC000F7005408FA005208031C520FFA02770883
:100BD000D7007A08D8005608DA005508D900580816
:100BE000DC005708DB001030DD00F701FA01DA0CF9
:100BF000D90C031C012E5B08F7070318FA0A5C08DE
:100C0000FA07FA0CF70CF90CF80CDD0BF72D790844
:100C1000D6007808D5004D084F02F7005008FA00BA
:100C20004E08031C4E0FFA027708D7007A08D80046
:100C30005608DA005508D9005808DC005708DB00D0
:100C4000F801F901F701FA015C08031D2A2E5B087F
:100C50000319442E1030DD000310D90DDA0DF70D05
:100C6000FA0D5C087A02031D372E5B087702031C1D
:100C7000402E5B08F702031CFA035C08FA02031417
:100C8000F80DF90DDD0B2C2E7908D6007808D5006B
:100C900051087807F8007908FA0052080318520F33
:100CA000FA077A08F9007808AD000800CA01C725DC
:100CB0000230CA00FA30D100BD20CA0B5A2E3708C4
:100CC000CA00C7250830CA00FA30D100BD20CA0BBF
:100CD000642ECA01C7250230CA00FA30D100BD20F7
:100CE000CA0B6D2E8A150A12F128CC014C08093C5A
:100CF000031C832E4C084A07840083134B18831768
:100D00008001CC0A762E8A150A1230295030CB0089
:100D1000CC01D0014B30CF000230D100D3014D3097
:100D2000D2000530E1000430E200EF210A30E1009A
:100D30008030E200FF21D401510854020318B32E81
:100D40005008FA004F08CF0A0319D00A8400831311
:100D50007A1883170008D6000930E5005608E60027
:100D60005521D40A9C2E0130E5000330E6005521C0
:100D7000FF30D4000530E400A2217808D500D40368
:100D8000D4080319C52E551DBA2E5208F800530871
:100D9000FA005208D6005308D7002230E400A221FE
:100DA0005608840083135718831778088000013091
:100DB0005207F8005308FA000318FA0A7808D60018
:100DC0007A08D7002130E400A2215608840083135A
:100DD00057188317780880000830E1008030E2005F
:100DE000EF210C30D300D5014B30D4000430D600B5
:100DF000D8014B30D700DA014A30D900C32308307C
:0C0E0000E100E200EF218A150A123829F7
:1010000003081F398300AC01AB015A30B70003302D
:10101000B80083161F149F141F159F1107309C00E2
:10102000831313308312B900E230BA00E630BB00FC
:101030001130BC000630BD00831609108312091060
:1010400083168910831289108A1126298A158A111C
:101050000E2A8A158A11622A8A150130D100D2001F
:101060008A1170228A158D3003178D0000308F0091
:101070008A110313A6228A150130D1000230D20052
:101080008A1170228A15943003178D0000308F006A
:1010900003100F300313CA008A11FC2A8A1538087E
:1010A000CA001830CB008A116A2B8A156430D1002F
:1010B0008A11BD208A15CB014930CA008A119D2CA6
:1010C0008A15F80803193929CB013F30CA008A1163
:1010D000D82C8A15F808031936298A113B258A1558
:1010E0000130D100D2008A1170228A159D30031779
:1010F0008D0000308F008A110313A6228A15053057
:10110000D1000130D2008A1170228A15BE013E083A
:10111000043C031C99283F303E07840083130008D9
:10112000CA00CB003730CC008A11432D8A15BE0A85
:101130008728CB013F30CA00CD013930CC008A115D
:10114000662D8A15F8080319FF28B808031DD7284B
:101150008A113B258A150130D100D2008A117022F4
:101160008A15A03003178D0000308F008A110313F9
:10117000A6228A150130D1000230D2008A117022D5
:101180008A15A93003178D0000308F008A110313D0
:10119000A6228A150830CA00FA30D1008A11BD2073
:1011A0008A15CA0BCC288A113B258A15FE2883167E
:1011B00009108312091483168910831289100130D3
:1011C000D1000230D2008A1170228A15AD30031787
:1011D0008D0000308F008A110313A6228A158A1110
:1011E000562E8A158316091083120910831689104A
:1011F000831289108A113B258A15B8032B2983167F
:101200008910831289148316091083120910013082
:10121000D1000230D2008A1170228A15B53003172E
:101220008D0000308F008A110313A6228A15083022
:10123000CA00FA30D1008A11BD208A15CA0B1929BB
:1012400083160910831209108316891083128910DE
:101250008A113B258A15CB013F30CA008A11752EB1
:101260008A156430D1008A11BD208A158A11862E14
:101270008A150230CA00FA30D1008A11BD208A15C1
:10128000CA0B3B2983160911831209150430CA00C1
:10129000FA30D1008A11BD208A15CA0B482983165D
:1012A0000911831209110230CA00FA30D1008A11E3
:0C12B000BD208A15CA0B55292D286300AB
:02400E003A3F37
:00000001FF
;PIC16F877A
;CRC=D4AD  CREATED="07-Dec-22 04:08"
