:1000000006308A00F52E0000FF00030E8301A100D8
:100010000A08A0008A010408A2007708A300780853
:10002000A4007908A5007A08A60003170D08031399
:10003000A70003170F080313A80003170C080313E6
:10004000A90003170E080313AA00831383128B1E43
:100050002B280B194C28220884002308F7002408B9
:10006000F8002508F9002608FA00270803178D0074
:100070000313280803178F000313290803178C00A4
:1000800003132A0803178E00031320088A00210E89
:100090008300FF0E7F0E09008A110A1257280A10EA
:1000A0008A100A11820728340C34013406340130D6
:1000B000AB070318AC0A2C08003C03186828FF3A69
:1000C000031D66282B08813C03186828AC01AB018E
:1000D000AC08031D74282D082B02031874288316FE
:1000E0000810831208147828831608108312081049
:1000F0000B118A110A122B280C00D03A6539F43002
:10010000A01AAD2ACE240001C539F030E334EF390E
:100110002032E939701DA012640049223A10000112
:10012000C539F430E3346F37E136E9326E3A6F00A7
:100130004C3665376F170001C131E332F337A02128
:100140006F39F232633A6F00C131E332F337202264
:100150006537E53361326F00513084008313000846
:100160000319BF280630F800F701F70BB528F80B84
:10017000B4287B30F700F70BBB28800BB2280800AF
:100180005818C4280812C5280816831608128312A6
:10019000D818CC288812CD28881683168812831286
:1001A0005819D4280813D528081783160813831262
:1001B000D819DC288813DD288817831688130000D7
:1001C0008811831288150230F700F70BE528E8281C
:1001D0000000831688118312881108008316081105
:1001E000831208116330F700F70BF428F728D508BD
:1001F0000319FF2883160811831208150329831693
:1002000008118312081100008316881183128811C7
:10021000560ED7000F30D7055708D800C020560813
:100220000F39D700D800C0200800831608118312A8
:10023000081183168811831288110F30D100AC2069
:10024000CA014A08023C031C2D290330D800C020F3
:100250000530D100AC20CA0A21290230D800C020C4
:10026000CA014A08033C031C41294A084F20CB001D
:10027000D5014B08D600EE200530D100AC20CA0ACB
:1002800031298A110A121A2F8510831685108312BC
:1002900005108316051003108312650D7E39E800E2
:1002A0000830E700E70803196C2968088039803CAA
:1002B00003195C2905115D290515831605118312A3
:1002C00085148316851003108312E80D851083169C
:1002D00085108312E70352290830E700E708031965
:1002E000882966088039803C031978290511792905
:1002F00005158316051183128514831685100310C6
:100300008312E60D8510831685108312E7036E298C
:100310000514831605108312851483168510831225
:100320000800E701851083168510831205108316D7
:10033000051003108312640D7E398038E600083002
:10034000E500E5080319BB2966088039803C0319DC
:10035000AB290511AC2905158316051183128514E7
:100360008316851003108312E60D85108316851001
:100370008312E503A1290830E500E5080319D32914
:1003800085148316851003108312E70D83168515D7
:100390000030831285190130E7048510831685101B
:1003A0008312E503BD2905148316051083128514F5
:1003B0008316851083126708F8000800E3016108BE
:1003C000E40091217808E3006208FF3A6305E40045
:1003D0006108E5006408E60044210800E3016108C3
:1003E000E40091217808E30063086204E4006108F6
:1003F000E5006408E6004421080005148316051092
:10040000831205168316051283120516831605122C
:10041000092A0A2A00008312051283160512102ADF
:10042000112A00008312051683160512172A182AAE
:10043000000001308312E5000F30E6004421202A3D
:10044000212A00002A30E5008D30E60044212B30BF
:10045000E5003E30E60044212D30E5001E30E60088
:1004600044212C30E500E60144211530E500403000
:10047000E60044211130E5003D30E600442114300F
:10048000E1000330E200DE211430E400912178081D
:10049000CA001430E1000330E200EE218A110A1292
:1004A0001B2F83160108C7390838810083128B1669
:1004B000C0308B04E63081008A110A121C2F520BC7
:1004C000622A652A4030D300662AD30101305102E6
:1004D000D30753088038D400D5015408D600EE2045
:1004E000080050080C3A03197C2A063A0319842A9A
:1004F000023A03198A2A8F2AD5010130D600EE204C
:100500000230D100AC20942A0130D1000230D20058
:100510005F22942AD5011030D600EE20942A0130B3
:10052000D5005008D600EE2008000B08CA008B1337
:10053000831603178C170C1400000000831203139A
:10054000CA1B8B1703170C087F390319E92A0313F9
:10055000CA0003170D080313CB0003170F0803137A
:10056000CC004A08D00071224B0803178D000313FA
:100570004C0803178F0003130B08CD008B13831651
:1005800003178C170C140000000083120313CD1BFB
:100590008B1703170C0D0E0D7F390319E92A03136E
:1005A000CA0003170D080313CB0003170F0803132A
:1005B000CC004A08D00071224B0803178D000313AA
:1005C0004C0803178F008D0A03198F0A0313952A0D
:1005D0000317031308000B08CB008B1383160317B4
:1005E0008C170C140000000083120313CB1B8B1715
:1005F0000318222B03170C087F390313CB000317B2
:100600000D080313CC0003170F080313CD004B088C
:10061000D00071224C0803178D0003134D080317F7
:100620008F0003130B08CE008B13831603178C1750
:100630000C140000000083120313CE1B8B17CA0B8F
:10064000222B412B03170C0D0E0D7F390313CB000A
:1006500003170D080313CC0003170F080313CD0075
:100660004B08D00071224C0803178D0003134D086E
:1006700003178F008D0A03198F0A03100313CA0B87
:10068000EB2A8A110A12362F5108F801500203187A
:100690004C2B5008F700582BF7010830D200D00D32
:1006A000F70D510877020318F700F80DD20B4F2B06
:1006B000080020304B1E3030CC004A08F700CA1F1B
:1006C000692BF709F70A7708CA002D30CC00CB1741
:1006D0004B144A08D0006430D10044237708CA0084
:1006E00030307807CD004A08D0000A30D1004423CA
:1006F00030307707CF0030307807CE004C08F70055
:1007000030304D020319882BCB14CB1B4B159C2B7F
:100710004C08CD002030CC0030304E020319942B11
:100720004B14CB1BCB149C2B031D4B14031D9C2B78
:100730004D08CE002030CD004B19A32BCB18A62B93
:100740004B18A92BAC2B4C08D00071224D08D000BF
:1007500071224E08D00071224F08D00071228A11F8
:100760000A123B2F0230DB00DC01DD0153080E3A98
:100770000319BE2B023A0319C32BC82B1230DC001D
:100780001030DD00C82B7730DC003030DD00C82BA6
:100790005C088038E1000230E5006108E600442191
:1007A0000430E1008030E200DE210A30E1008030D8
:1007B000E200EE210130E500E6014421E0015608A7
:1007C00060020318F22B6008540784008313551845
:1007D00083170008E1000930E5006108E6004421C4
:1007E000E00ADF2B0130E5005308E60044215308FE
:1007F0000C3C031D002C0D30E1008030E200EE21A6
:10080000FF30E0000430E40091217808DF00E003CD
:10081000E0080319112C5F18112C5F085D050319FE
:10082000022C0D30E1008030E200DE21E0080319E7
:10083000892C0630E400912178081B39031D872C90
:10084000DB015F085C0501390319282C0130DB004E
:1008500053080C3C031D862C0A30E40091217808D3
:10086000DF000C30E400912178080739DE00DE0853
:1008700003194B2C5908840083135A18831701302D
:100880005F02F700F70DF70DF70DF830F705770861
:100890005E078000582C5908840083135A18831768
:1008A0005F0DF700F70DF70DF830F70577088000BA
:1008B000DF08031D5D2C0130DF005F08103C0318CA
:1008C000632C1030DF00E0015F08600203187F2C0A
:1008D00060085707F8005808FA000318FA0A780861
:1008E000E1007A08E2000930E40091216108840007
:1008F00083136218831778088000E00A642C60086C
:10090000570784008313581883178001892C0230FD
:10091000DB005B08F80008002630CC004B08CE0056
:100920004A08CD000D30E5000730E60044214D08AF
:10093000840083134E1883174C0880000C30D300BA
:100940004E08D5004D08D4000130D6004E08D8001E
:100950004D08D700DA015030D900B2237808CF0013
:10096000CF08031DB72C5008103C0319B92C0230D6
:10097000CF004F08F800F808031DC22C0130F80022
:10098000C42CC42C0030F8008A110A12422F4B08E4
:10099000CE004A08CD00D1010D30E500E60144212A
:1009A0004D08840083134E18831793308000013064
:1009B0004D07840083134E188317203080000830C1
:1009C000E100E200DE210C30D3004E08D5004D08D6
:1009D000D4000230D6004E08D8004D08D700DA0106
:1009E0005230D900B2237808CF00CF08031D132D51
:1009F000D0015008033C031C072D50084D0784000C
:100A000083134E1883170008D106D00AF92C04303E
:100A10004D07840083134E188317000851020319F1
:100A2000132D0230CF004F08F8007808CC000530B5
:100A30004A07840083134B1883178001CC08031DD9
:100A4000252D0130F800272D272D0030F8008A11C0
:100A50000A12492F7C3003178D0000308F000313DA
:100A600095220800CC1B442D0F30F7004B0EF705E4
:100A70000A30770203183F2D3030F707412D4C081C
:100A8000F7077708D00071220F30CB050A304B02F0
:100A900003184C2D30304E2DCC134C08CB074B088F
:100AA000D00071228A110A126C2F4A088400831325
:100AB0004B1883170008CE004C08840083134D1890
:100AC000831700084E02031DB12D01304A07840030
:100AD00083134B1883170008CE0001304C078400A5
:100AE00083134D18831700084E02031DB12D0230E9
:100AF0004A07840083134B1883170008CE00023086
:100B00004C07840083134D18831700084E02031D01
:100B1000B12D03304A07840083134B188317000854
:100B2000CE0003304C07840083134D188317000850
:100B30004E02031DB12D04304A07840083134B1865
:100B400083170008CE0004304C07840083134D182F
:100B5000831700084E02031DB12D0130F800B32D9C
:100B6000B32D0030F8008A110A12752FCC014A0803
:100B7000CB00CE01CD01D001B430CF00D2010B307B
:100B8000D100D4013030D3004D084B02D5004C08C1
:100B9000D6004E08031C4E0FD60251085302F70030
:100BA0005408FA005208031C520FFA027708D700C3
:100BB0007A08D8005608DA005508D9005808DC0031
:100BC0005708DB001030DD00F701FA01DA0CD90C10
:100BD000031CF02D5B08F7070318FA0A5C08FA07F4
:100BE000FA0CF70CF90CF80CDD0BE62D7908D600A1
:100BF0007808D5004D084F02F7005008FA004E085B
:100C0000031C4E0FFA027708D7007A08D80056085E
:100C1000DA005508D9005808DC005708DB00F80155
:100C2000F901F701FA015C08031D192E5B0803198D
:100C3000332E1030DD000310D90DDA0DF70DFA0D4B
:100C40005C087A02031D262E5B087702031C2F2EF8
:100C50005B08F702031CFA035C08FA020314F80DA0
:100C6000F90DDD0B1B2E7908D6007808D500510848
:100C70007807F8007908FA0052080318520FFA07AB
:100C80007A08F9007808AD000800CA01B6250430DA
:100C9000CA00FA30D100AC20CA0B492E3708CA006E
:100CA000B6251430CA00FA30D100AC20CA0B532E3E
:100CB000CA01B6250430CA00FA30D100AC20CA0BF4
:100CC0005C2E8A110A12B02FCC014C08093C031C7F
:100CD000722E4C084A07840083134B188317800137
:100CE000CC0A652E8A110A12E32F5030CB00CC01BA
:100CF000D0014B30CF000230D100D3014D30D200B3
:100D00000530E1000430E200DE210A30E1008030ED
:100D1000E200EE21D401510854020318A22E50081B
:100D2000FA004F08CF0A0319D00A840083137A18F7
:100D300083170008D6000930E5005608E600442174
:100D4000D40A8B2E0130E5000330E6004421FF3049
:100D5000D4000530E40091217808D500D403D408EC
:100D60000319B42E551DA92E5208F8005308FA0095
:100D70005208D6005308D7002230E40091215608CB
:100D800084008313571883177808800001305207B6
:100D9000F8005308FA000318FA0A7808D6007A080F
:100DA000D7002130E400912156088400831357189E
:100DB0008317780880000830E1008030E200DE21EF
:100DC0000C30D300D5014B30D4000430D600D8010C
:100DD0004B30D700DA014A30D900B2230830E100A5
:100DE000E200DE218A110A12E72F03081F3983006F
:100DF000AC01AB015A30B7000330B80083161F14A2
:100E00009F141F159F1107309C008313133083120A
:100E1000B900E230BA00E630BB001130BC00063049
:100E2000BD008316091083120910831689108312DE
:100E300089101529FD29512A0130D100D2005F22E5
:100E40007D3003178D0000308F0003139522013091
:100E5000D1000230D2005F22843003178D000030B1
:100E60008F0003100F300313CA00EB2A3808CA00A2
:100E70001830CB00592B6430D100AC20CB01493065
:100E8000CA008C2CF8080319E72FCB013F30CA00A9
:100E9000C72CF8080319E62F2A250130D100D2000B
:100EA0005F228D3003178D0000308F0003139522D1
:100EB0000530D1000130D2005F22BE013E08043C63
:100EC000031C6E2F3F303E07840083130008CA00C6
:100ED000CB003730CC00322DBE0A5E2FCB013F3025
:100EE000CA00CD013930CC00552DF8080319BB2FAD
:100EF000B808031D9B2F0230D1000130D2005F22C1
:100F0000903003178D0000308F00031395220130BD
:100F1000D1000230D2005F22983003178D000030DC
:100F20008F00031395220830CA00FA30D100AC209C
:100F3000CA0B952FBA2F8316091083120914831632
:100F40008910831289100130D1000230D2005F2253
:100F50009C3003178D0000308F0003139522452E1F
:100F600083160910831209108316891083128910C1
:100F70002A25B803DF2F831689108312891483165C
:100F80000910831209100130D1000230D2005F2213
:100F9000A43003178D0000308F0003139522143006
:100FA000CA00FA30D100AC20CA0BD12F8316091029
:100FB0008312091083168910831289102A25CB0108
:100FC0003F30CA00642E6430D100AC20752E1C2F37
:020FD0006300BC
:02400E003A3F37
:00000001FF
;PIC16F877A
;CRC=8C0C  CREATED="05-Dec-22 12:34"
